:020000040000FA
:060000009DEF0BF0120061
:061000009DEF0BF0120051
:06100800E1EF08F0120008
:021018001200C4
:02102A000000C4
:04102C00D9CFE6FF33
:10103000E1CFD9FF040EE126DE6ADD6ADECF10F0D3
:10104000DDCF11F0FD0EDBCF12F0FE0EDBCF13F083
:1010500011501318E8AE02D0133404D01250105CB3
:10106000135011581DE2020EDB6A030EDB6A020EFA
:10107000DBCF10F0030EDBCF11F0D890115004E657
:10108000C60E105C020E115806E2020EDB2A030E99
:1010900001E3DB2AECD7DF2A010E01E3DB2ACED7FE
:1010A000040EE15C02E2E16AE552E16EE552E7CF4F
:1010B000D9FF1200D9CFE6FFE1CFD9FF0F0EE66EC0
:1010C000E66AB4DFE552E552FE0EDB50836E849093
:1010D000849284840F0EE66EE66AA8DFE552E5523C
:1010E0008494E552E7CFD9FF1200D9CFE6FFE1CFD4
:1010F000D9FF0F0EE66EE66A99DFE552E552FE0E65
:10110000DB50836E8480849284840F0EE66EE66AE0
:101110008DDFE552E5528494E552E7CFD9FF120006
:10112000D9CFE6FFE1CFD9FF020EE126DE6ADD6A04
:10113000DE50000160250F01E96EDD5000016121E4
:101140000F01EA6EEF5019E0DE50000160250F013B
:10115000E96EDD50000161210F01EA6EEF50E66E8D
:10116000C4DFE5520F0EE66EE66A60DFE552E55237
:10117000DF2A010E01E3DB2ADBD7020EE15C03E28A
:1011800000D0E16AE552E16EE552E7CFD9FF1200E7
:101190000E0EC16E956A966A380EE66E8BDFE552CA
:1011A0000E0EE66E87DFE552010EE66E83DFE55236
:1011B000060EE66E7FDFE552800EE66E7BDFE552BF
:1011C0001200DACFE4FFE2CFDAFFE9CFE4FFEACFA3
:1011D000E4FFF6CFE4FFF7CFE4FFF5CFE4FFF3CF72
:1011E000E4FFF4CFE4FFFACFE4FF00EE00F0100ECE
:1011F000E80403E3EECFE4FFFBD700EE10F0040EAB
:10120000E80403E3EECFE4FFFBD7E652F2B46CD878
:10121000E55200EE13F0040EE80403E3E5CFEDFF22
:10122000FBD700EE0FF0100EE80403E3E5CFEDFF6F
:10123000FBD7E5CFFAFFE5CFF4FFE5CFF3FFE5CF2E
:10124000F5FFE5CFF7FFE5CFF6FFE5CFEAFFE5CF06
:10125000E9FFE5CFDAFF1100D9CFE6FFE1CFD9FFF3
:101260000B0EE126D9CFE9FFDACFEAFF760EEE6E5C
:101270006F0EEE6E6C0EEE6E740EEE6E610EEE6E16
:10128000670EEE6E650EEE6E200EEE6E3D0EEE6E8D
:10129000200EEE6EEE6A0001626B636BF19E936A44
:1012A000928076DFD9CF60F0DACF61F039DF080EB7
:1012B000D56ED768380ED66EF294F28AF184F28C2D
:1012C000F28ED58E010EC26E0E0EC16ECE0EC06EA7
:1012D0009ED8F8D70B0EE15C02E2E16AE552E16EBE
:1012E000E552E7CFD9FF1200D70E00016C5D000E6A
:1012F0006D59000E6E59000E6F5902E228D826D0A3
:10130000990E6C5D010E6D59000E6E59000E6F59ED
:101310000CE2D880D70E6C55000E6D55000E6E5540
:10132000000E6F5502E233D811D0D880990E6C555B
:10133000010E6D55000E6E55000E6F5502E247D836
:1013400005D08A94D768380ED66EF2941200000148
:10135000622B000E6323050E621901E1635102E165
:10136000626B636B010E63AF02D0D89003D0625DF5
:10137000000E635906E28A84D768380ED66EF2945E
:1013800005D08A94D768380ED66EF2941200000108
:10139000622B000E6323050E621901E1635102E125
:1013A000626B636B020E63AF02D0D89003D0625DB4
:1013B000000E635906E28A84D768380ED66EF2941E
:1013C00005D08A94D768380ED66EF29412000001C8
:1013D000622B000E6323030E621901E1635102E1E7
:1013E000626B636B020E63AF02D0D89003D0625D74
:1013F000000E635906E28A84D768380ED66EF294DE
:1014000005D08A94D768380ED66EF2941200C00EBA
:10141000E66E50DEE552C282C2B2FED7C3CF64F0A0
:101420000001656B666B676BC4CF68F0696B6A6BB4
:101430006B6B080E1F0B08E00001D8906837693706
:101440006A376B37E806F9E1680EE96E000EEA6E5E
:1014500000016451EE106C6F6551EE106D6F6651B6
:10146000EE106E6F6751EE106F6F6CC010F06DC0B4
:1014700011F06EC012F06FC013F0E80E096E030E8B
:101480000A6E0B6A0C6A10C004F011C005F012C09D
:1014900006F013C007F069EC0BF004C010F005C0B3
:1014A00011F006C012F007C013F0300E1026000E27
:1014B00011221222132210C070F06CC010F06DC007
:1014C00011F06EC012F06FC013F0E80E096E030E3B
:1014D0000A6E0B6A0C6A10C004F011C005F012C04D
:1014E00006F013C007F069EC0BF000C010F001C06B
:1014F00011F002C012F003C013F0640E096E0A6A04
:101500000B6A0C6A10C004F011C005F012C006F09E
:1015100013C007F069EC0BF004C010F005C011F027
:1015200006C012F007C013F0300E1026000E112274
:101530001222132210C071F06CC010F06DC011F0B7
:101540006EC012F06FC013F0640E096E0A6A0B6A67
:101550000C6A10C004F011C005F012C006F013C0F0
:1015600007F069EC0BF000C010F001C011F002C0F0
:1015700012F003C013F00A0E096E0A6A0B6A0C6AB5
:1015800010C004F011C005F012C006F013C007F03F
:1015900069EC0BF004C010F005C011F006C012F0A9
:1015A00007C013F0300E1026000E11221222132253
:1015B00010C072F06CC010F06DC011F06EC012F06F
:1015C0006FC013F00A0E096E0A6A0B6A0C6A10C02B
:1015D00004F011C005F012C006F013C007F069EC6A
:1015E0000BF000C010F001C011F002C012F003C0F7
:1015F00013F0300E1026000E11221222132210C0FA
:1016000073F070C0E6FF71DDE5522E0EE66E6DDD03
:10161000E55271C0E6FF69DDE55272C0E6FF65DDA7
:10162000E55273C0E6FF61DDE552760EE66E5DDDE4
:04163000E55212006D
:0C1634002A0EF66E100EF76E000EF86E17
:1016400000010900F550796F0900F5507A6F03E148
:10165000796701D03DD00900F550746F0900F5504D
:10166000756F0900F550766F09000900F550E96EB5
:101670000900F550EA6E090009000900F550776F7E
:101680000900F550786F09000900F6CF7BF0F7CF1D
:101690007CF0F8CF7DF074C0F6FF75C0F7FF76C020
:1016A000F8FF0001775302E1785307E00900F55095
:1016B000EE6E7707F8E27807F9D77BC0F6FF7CC0BB
:1016C000F7FF7DC0F8FF00017907000E7A5BBFD7F6
:0216D000120006
:0E16D200036A026A016A006A200EE76ED89071
:1016E000043605360636073600360136023603362E
:1016F0000950005C0A5001580B5002580C50035816
:1017000009E30950005E0A50015A0B50025A0C506E
:0A171000035A042AE72EE4D7120062
:06171A00000EF36E00EE6C
:1017200000F0040E01D81200EA6002D0EE6AFCD785
:0A173000F350E9601200EE6AFCD7E6
:06173A0013EE00F023EEA7
:1017400000F0F86A0F9C1AEC0BF0ABEC0BF02CECF1
:0617500009F0FBD71200B6
:0217560012007F
:00000001FF
