:020000040000FA
:0600000065EF09F012009B
:0610000065EF09F012008B
:021008001200D4
:021018001200C4
:02102A000000C4
:04102C00D9CFE6FF33
:10103000E1CFD9FF040EE126DE6ADD6ADECF00F0E3
:10104000DDCF01F0FD0EDBCF02F0FE0EDBCF03F0B3
:1010500001500318E8AE02D0033404D00250005C03
:10106000035001581DE2020EDB6A030EDB6A020E1A
:10107000DBCF00F0030EDBCF01F0D890015004E687
:10108000C60E005C020E015806E2020EDB2A030EB9
:1010900001E3DB2AECD7DF2A010E01E3DB2ACED7FE
:1010A000040EE15C02E2E16AE552E16EE552E7CF4F
:1010B000D9FF1200D9CFE6FFE1CFD9FF0F0EE66EC0
:1010C000E66AB4DFE552E552FE0EDB50836E849093
:1010D000849284840F0EE66EE66AA8DFE552E5523C
:1010E0008494E552E7CFD9FF1200D9CFE6FFE1CFD4
:1010F000D9FF0F0EE66EE66A99DFE552E552FE0E65
:10110000DB50836E8480849284840F0EE66EE66AE0
:101110008DDFE552E5528494E552E7CFD9FF120006
:10112000D9CFE6FFE1CFD9FF020EE126DE6ADD6A04
:10113000DE5000016A250F01E96EDD5000016B21D0
:101140000F01EA6EEF5019E0DE5000016A250F0131
:10115000E96EDD5000016B210F01EA6EEF50E66E83
:10116000C4DFE5520F0EE66EE66A60DFE552E55237
:10117000DF2A010E01E3DB2ADBD7020EE15C03E28A
:1011800000D0E16AE552E16EE552E7CFD9FF1200E7
:101190000E0EC16E956A966A380EE66E8BDFE552CA
:1011A0000E0EE66E87DFE552010EE66E83DFE55236
:1011B000060EE66E7FDFE552800EE66E7BDFE552BF
:1011C0001200D9CFE6FFE1CFD9FF060EE126D9CF35
:1011D000E9FFDACFEAFF480EEE6E450EEE6E4C0EDA
:1011E000EE6EEE6E4F0EEE6EEE6AD2DFD9CF6AF083
:1011F000DACF6BF095DFFFD7060EE15C02E2E16A21
:0C120000E552E16EE552E7CFD9FF120085
:04120C002A0EF66E42
:10121000100EF76E000EF86E00010900F550656FB4
:101220000900F550666F03E1656701D03DD0090004
:10123000F550606F0900F550616F0900F550626F5D
:1012400009000900F550E96E0900F550EA6E090041
:1012500009000900F550636F0900F550646F09003B
:101260000900F6CF67F0F7CF68F0F8CF69F060C0FB
:10127000F6FF61C0F7FF62C0F8FF0001635302E1AF
:10128000645307E00900F550EE6E6307F8E2640767
:10129000F9D767C0F6FF68C0F7FF69C0F8FF000123
:0A12A0006507000E665BBFD7120061
:0612AA00000EF36E00EEE1
:1012B00000F0040E01D81200EA6002D0EE6AFCD7FA
:0A12C000F350E9601200EE6AFCD75B
:0612CA0013EE00F023EE1C
:1012D00000F0F86A059C06EC09F073EC09F0E1EC0B
:0612E00008F0FBD712002C
:0212E6001200F4
:00000001FF
