:020000040000FA
:06000000E4EF0AF012001B
:06102A000100E6150000C4
:08103000800000001700000021
:08103800D9CFE6FFE1CFD9FF9B
:10104000040EE126DE6ADD6ADECF00F0DDCF01F0BE
:10105000FD0EDBCF02F0FE0EDBCF03F001500318D4
:10106000E8AE02D0033404D00250005C03500158B3
:101070001DE2020EDB6A030EDB6A020EDBCF00F01C
:10108000030EDBCF01F0D890015004E6C60E005CE1
:10109000020E015806E2020EDB2A030E01E3DB2AF0
:1010A000ECD7DF2A010E01E3DB2ACED7040EE15C88
:1010B00002E2E16AE552E16EE552E7CFD9FF1200A4
:1010C000D9CFE6FFE1CFD9FF0F0EE66EE66AB4DFB7
:1010D000E552E552FE0EDB50836E84908492848448
:1010E0000F0EE66EE66AA8DFE552E5528494E552FB
:1010F000E7CFD9FF1200D9CFE6FFE1CFD9FF0F0E1E
:10110000E66EE66A99DFE552E552FE0EDB50836E2D
:101110008480849284840F0EE66EE66A8DDFE55249
:10112000E5528494E552E7CFD9FF1200D9CFE6FF0C
:10113000E1CFD9FF020EE126DE6ADD6ADE50000152
:1011400060250F01E96EDD50000161210F01EA6E9B
:10115000EF5019E0DE50000160250F01E96EDD500F
:10116000000161210F01EA6EEF50E66EC4DFE55227
:101170000F0EE66EE66A60DFE552E552DF2A010EE9
:1011800001E3DB2ADBD7020EE15C03E200D0E16A77
:10119000E552E16EE552E7CFD9FF12000E0EC16EA7
:1011A000956A966A380EE66E8BDFE5520E0EE66E95
:1011B00087DFE552010EE66E83DFE552060EE66E2E
:1011C0007FDFE552800EE66E7BDFE5521200D9CF5D
:1011D000E6FFE1CFD9FFFE0EDB50C96E9EA6FED71B
:1011E0009E96C5AC03D0C584C5B4FED7E552E7CF03
:1011F000D9FF1200C5809EA6FED79E961200C58418
:10120000C5B4FED71200C5869EA6FED79E96C9CF4E
:101210007EF01200C58AC588C5B8FED71200C59AEF
:10122000C588C5B8FED71200C582C5B2FED79E9646
:10123000120093809382800EC76E280EC66EC56A18
:10124000310EC86E9D869E961200D9CFE6FFE1CF83
:10125000D9FF020EE126DE6ADD6ADFCF00F0DF2A69
:10126000010EDBCF01F001E3DB2AD890015004E648
:101270000A0E005C000E015801E2EFD7020EE15C9D
:1012800002E2E16AE552E16EE552E7CFD9FF1200D2
:10129000D9CFE6FFE1CFD9FFE652FE0EDB380F0BC8
:1012A000DF6E300EDF10DF6EDF5000D0E552E5520A
:1012B000E7CFD9FF1200D9CFE6FFE1CFD9FFE65241
:1012C000FE0EDB500F0BDF6E300EDF10DF6EDF50D7
:1012D00000D0E552E552E7CFD9FF1200D9CFE6FFA3
:1012E000E1CFD9FFFE0EDB50F00B00017C6FFE0E4C
:1012F000DB500F0B7D6F300E7D137C390F0B7C6F35
:10130000300E7C13E552E7CFD9FF1200C7A402D0FC
:10131000FDD7FCD7C5BC73DF1200D9CFE6FFE1CF04
:10132000D9FFE652C586C7B002D0FDD7FCD7C95059
:10133000DF6EECDFC58AC588C5A802D0FDD7FCD713
:10134000DF5000D0E552E552E7CFD9FF1200D9CFE8
:10135000E6FFE1CFD9FFE6524DDFD00EE66E37DF74
:10136000E552FE0EDBCFE6FF32DFE5525DDFD10E48
:10137000E66E2DDFE552D1DFDF6E41DFDF5000D0BA
:10138000E552E552E7CFD9FF120008DF720ED31203
:1013900050DF5BDF2FDFD00EE66E19DFE552E66A25
:1013A00016DFE552E66A13DFE552530EE66E0FDFF5
:1013B000E552080EE66E0BDFE552020EE66E07DF21
:1013C000E552290EE66E03DFE552100EE66EFFDEF3
:1013D000E552120EE66EFBDEE55211DFE66AB7DF7C
:1013E000E5520001626F010EE66EB1DFE5520001C9
:1013F000636F020EE66EABDFE5520001646F040E10
:10140000E66EA5DFE5520001656F050EE66E9FDF13
:10141000E5520001666F060EE66E99DFE5520001A7
:10142000676F800EE66E4CDEE552740EE66E63DE8C
:10143000E55264C0E6FF52DFE5523A0EE66E5BDE2F
:10144000E5527CC0E6FF57DEE5527DC0E6FF53DE85
:10145000E55263C0E6FF42DFE5523A0EE66E4BDE30
:10146000E5527CC0E6FF47DEE5527DC0E6FF43DE85
:10147000E55262C0E6FF32DFE5523A0EE66E3BDE31
:10148000E5527CC0E6FF37DEE5527DC0E6FF33DE85
:10149000E55265C0E6FF22DFE552C00EE66E10DEC3
:1014A000E5523A0EE66E27DEE5527CC0E6FF23DE0B
:1014B000E5527DC0E6FF1FDEE55266C0E6FF0EDFA7
:1014C000E5523A0EE66E17DEE5527CC0E6FF13DE0B
:1014D000E5527DC0E6FF0FDEE55267C0E6FFFEDEA7
:1014E000E5523A0EE66E07DEE5527CC0E6FF03DE0B
:1014F000E5527DC0E6FFFFDDE552010EE66EE66ACD
:0A1500009BDDE552E5526AD71200A8
:06150A002A0EF66E100E21
:10151000F76E000EF86E00010900F5509C6F09008F
:10152000F5509D6F03E19C6701D03DD00900F55057
:10153000976F0900F550986F0900F550996F0900F1
:101540000900F550E96E0900F550EA6E090009003E
:101550000900F5509A6F0900F5509B6F09000900CA
:10156000F6CF9EF0F7CF9FF0F8CFA0F097C0F6FF30
:1015700098C0F7FF99C0F8FF00019A5302E19B530E
:1015800007E00900F550EE6E9A07F8E29B07F9D7DD
:101590009EC0F6FF9FC0F7FFA0C0F8FF00019C07A8
:0815A000000E9D5BBFD7120095
:0815A800000EF36E00EE00F0EE
:1015B000040E01D81200EA6002D0EE6AFCD7F350A4
:0815C000E9601200EE6AFCD79D
:0815C80013EE00F023EE00F029
:1015D000F86A059C85EC0AF0F2EC0AF0C5EC09F01B
:0415E000FBD7120023
:0215E4001200F3
:0A15E60054494D453A004441544574
:0D15F0003A00525443204453313330370049
:00000001FF
