:020000040000FA
:0600000098EF08F0120069
:0610000098EF08F0120059
:021008001200D4
:021018001200C4
:02102A000000C4
:04102C002A0EF66E24
:10103000100EF76E000EF86E00010900F550656F96
:101040000900F550666F03E1656701D03DD00900E6
:10105000F550606F0900F550616F0900F550626F3F
:1010600009000900F550E96E0900F550EA6E090023
:1010700009000900F550636F0900F550646F09001D
:101080000900F6CF67F0F7CF68F0F8CF69F060C0DD
:10109000F6FF61C0F7FF62C0F8FF0001635302E191
:1010A000645307E00900F550EE6E6307F8E2640749
:1010B000F9D767C0F6FF68C0F7FF69C0F8FF000105
:0A10C0006507000E665BBFD7120043
:0610CA00D9CFE6FFE1CFE3
:1010D000D9FFFE0EDB50C96EC7A0FED7E552E7CFA1
:1010E000D9FF1200F19E939693949392949E400E92
:1010F000C76EA00EC66E81948186380EE66EE5DF5F
:10110000E552E66AE2DFE55281848196F4D7120067
:10111000000EF36E00EE00F0040E01D81200EA603B
:1011200002D0EE6AFCD7F350E9601200EE6AFCD7F9
:1011300013EE00F023EE00F0F86A019C16EC08F0C4
:0C114000A6EC08F072EC08F0FBD71200DF
:02114C0012008F
:00000001FF
