:020000040000FA
:06000000D3EF00F0120036
:020006000000F8
:08000800D9CFE6FFE1CFD9FFDB
:10001000080EE126140EF36E060EF3CFDBFF070E7B
:10002000DB6A600EDE6E000EDD6E010EF36E020EF8
:10003000F3CFDBFF030EDB6A020EDBCF00F0030E13
:10004000DBCF01F0060EDBCF02F0070EDBCF03F0B3
:1000500001500318E8AE02D0033404D00250005C13
:100060000350015837E2DECFE9FFDDCFEAFF040E8F
:10007000EECFDBFF050EEDCFDBFF020EDBCF02F094
:10008000030EDBCF03F0040EDB500224006E050EDE
:10009000DB500320016E020EDBCFE9FF030EDBCF46
:1000A000EAFFD890E936EA36600EE926000EEA2229
:1000B00000C0EEFF01C0EDFFD9CFE9FFDACFEAFFC4
:1000C000020EEE26000EEF22020EDB2A030E01E3E3
:1000D000DB2AB2D7080EE15C02E2E16AE552E16E8A
:0800E000E552E7CFD9FF120041
:0800E800060EF66E000EF76E25
:1000F000000EF86E00010900F5508D6F0900F550F3
:100100008E6F03E18D6701D03DD00900F550886FF7
:100110000900F550896F0900F5508A6F0900090040
:10012000F550E96E0900F550EA6E09000900090072
:10013000F5508B6F0900F5508C6F09000900F6CF60
:100140008FF0F7CF90F0F8CF91F088C0F6FF89C01C
:10015000F7FF8AC0F8FF00018B5302E18C5307E0E0
:100160000900F550EE6E8B07F8E28C07F9D78FC0C7
:10017000F6FF90C0F7FF91C0F8FF00018D07000E59
:060180008E5BBFD71200E8
:0A018600000EF36E00EE00F0040E10
:1001900001D81200EA6002D0EE6AFCD7F350E960A1
:0601A0001200EE6AFCD71C
:0A01A60013EE00F023EE00F0F86AFB
:1001B000059C74EC00F0E1EC00F004EC00F0FBD7DF
:0201C00012002B
:0201C200120029
:00000001FF
