:020000040000FA
:06000000E3EF08F012001E
:06100000E3EF08F012000E
:0610080016EF08F01200D3
:021018001200C4
:02102A000000C4
:04102C00DACFE4FF34
:10103000E2CFDAFFE9CFE4FFEACFE4FFF6CFE4FF47
:10104000F7CFE4FFF5CFE4FFF3CFE4FFF4CFE4FF05
:10105000FACFE4FF00EE00F0020EE80403E3EECF67
:10106000E4FFFBD700EE02F0000EE80403E3EECF4E
:10107000E4FFFBD7E65233D8E55200EE01F0000E54
:10108000E80403E3E5CFEDFFFBD700EE01F0020E2D
:10109000E80403E3E5CFEDFFFBD7E5CFFAFFE5CFAB
:1010A000F4FFE5CFF3FFE5CFF5FFE5CFF7FFE5CFA1
:1010B000F6FFE5CFEAFFE5CFE9FFE5CFDAFF110064
:1010C000F19E936A080ED56ED768B20ED66EF29472
:1010D000F28AF28ED58E6AC081FFFDD71200040E0F
:1010E00000016A256A6F000E6B216B6F6B3504E29D
:1010F0006A51FF08000E6B5502E26A6B6B6BD76892
:08110000B20ED66EF29412004B
:081108002A0EF66E100EF76EC0
:10111000000EF86E00010900F550656F0900F550EA
:10112000666F03E1656701D03DD00900F550606F3F
:101130000900F550616F0900F550626F0900090060
:10114000F550E96E0900F550EA6E09000900090042
:10115000F550636F0900F550646F09000900F6CF80
:1011600067F0F7CF68F0F8CF69F060C0F6FF61C0B4
:10117000F7FF62C0F8FF0001635302E1645307E028
:101180000900F550EE6E6307F8E26407F9D767C00F
:10119000F6FF68C0F7FF69C0F8FF00016507000EA1
:0611A000665BBFD71200E0
:0A11A600000EF36E00EE00F0040EE0
:1011B00001D81200EA6002D0EE6AFCD7F350E96071
:0611C0001200EE6AFCD7EC
:0A11C60013EE00F023EE00F0F86ACB
:1011D000019C84EC08F0F1EC08F060EC08F0FBD71F
:0211E0001200FB
:0211E2001200F9
:00000001FF
