:020000040000FA
:06000000B0EF0BF012004E
:06100000B0EF0BF012003E
:06100800E4EF09F0120004
:021018001200C4
:06102A0001007E1700002A
:08103000600000002100000037
:08103800D9CFE6FFE1CFD9FF9B
:10104000040EE126DE6ADD6ADECF00F0DDCF01F0BE
:10105000FD0EDBCF02F0FE0EDBCF03F001500318D4
:10106000E8AE02D0033404D00250005C03500158B3
:101070001DE2020EDB6A030EDB6A020EDBCF00F01C
:10108000030EDBCF01F0D890015004E6F40E005CB3
:10109000010E015806E2020EDB2A030E01E3DB2AF1
:1010A000ECD7DF2A010E01E3DB2ACED7040EE15C88
:1010B00002E2E16AE552E16EE552E7CFD9FF1200A4
:1010C000D9CFE6FFE1CFD9FF0F0EE66EE66AB4DFB7
:1010D000E552E552FE0EDB50836E84908492848448
:1010E0000F0EE66EE66AA8DFE552E5528494E552FB
:1010F000E7CFD9FF1200D9CFE6FFE1CFD9FF0F0E1E
:10110000E66EE66A99DFE552E552FE0EDB50836E2D
:101110008480849284840F0EE66EE66A8DDFE55249
:10112000E5528494E552E7CFD9FF1200D9CFE6FF0C
:10113000E1CFD9FF020EE126DE6ADD6ADE50000152
:1011400081250F01E96EDD50000182210F01EA6E59
:10115000EF5019E0DE50000181250F01E96EDD50EE
:10116000000182210F01EA6EEF50E66EC4DFE55206
:101170000F0EE66EE66A60DFE552E552DF2A010EE9
:1011800001E3DB2ADBD7020EE15C03E200D0E16A77
:10119000E552E16EE552E7CFD9FF12000E0EC16EA7
:1011A000956A966A380EE66E8BDFE5520E0EE66E95
:1011B00087DFE552010EE66E83DFE552060EE66E2E
:1011C0007FDFE552800EE66E7BDFE5521200D9CF5D
:1011D000E6FFE1CFD9FF040EE126DE6ADD6ADECF4D
:1011E00000F0DDCF01F0FD0EDBCF02F0FE0EDBCF15
:1011F00003F001500318E8AE02D0033404D00250CB
:10120000005C035001581DE2020EDB6A030EDB6A2C
:10121000020EDBCF00F0030EDBCF01F0D8900150BF
:1012200004E6F40E005C010E015806E2020EDB2A11
:10123000030E01E3DB2AECD7DF2A010E01E3DB2AF0
:10124000CED7040EE15C02E2E16AE552E16EE552BE
:10125000E7CFD9FF1200D9CFE6FFE1CFD9FFE652A1
:10126000FE0EDB380F0BDF6E300EDF10DF6EDF504F
:1012700000D0E552E552E7CFD9FF1200D9CFE6FF03
:10128000E1CFD9FFE652FE0EDB500F0BDF6E300EC2
:10129000DF10DF6EDF5000D0E552E552E7CFD9FF17
:1012A0001200D9CFE6FFE1CFD9FFE65220D8D00E09
:1012B000E66E2ED8E552FE0EDBCFE6FF29D8E552CA
:1012C0001AD8D10EE66E24D8E55230D8DF6E17D882
:1012D000DF5000D0E552E552E7CFD9FF12009380EE
:1012E0009382C78E310EC86E280EC66E1200C5805E
:1012F000C5B0FED71200C582C5B2FED71200C584A4
:10130000C5B4FED71200C7B4FED7C5BCF8DF1200C3
:10131000D9CFE6FFE1CFD9FFFE0EDB50C96EC7B0D3
:10132000FED7F1DFE552E7CFD9FF1200D9CFE6FFB4
:10133000E1CFD9FFE652C586C7A0FED7C950DF6E00
:10134000E2DFC58AC588C5B8FED7DF5000D0E552B8
:10135000E552E7CFD9FF1200D9CFE6FFE1CFD9FFA1
:10136000FE0EDBCFE6FFD4DFE552FD0EDBCFE6FF5E
:10137000CFDFE552FC0EDBCFE6FFCADFE552E552D8
:10138000E7CFD9FF1200D9CFE6FFE1CFD9FFFE0E9C
:10139000DBCFE6FFBDDFE552FD0EDBCFE6FFB8DFBA
:1013A000E552FC0EDBCFE6FFB3DFE552FB0EDBCFF1
:1013B000E6FFAEDFE552FA0EDBCFE6FFA9DFE5522E
:1013C000E552E7CFD9FF1200DACFE4FFE2CFDAFF30
:1013D000E9CFE4FFEACFE4FFF6CFE4FFF7CFE4FF85
:1013E000F5CFE4FFF3CFE4FFF4CFE4FFFACFE4FF5F
:1013F00000EE04F0020EE80403E3EECFE4FFFBD7B7
:1014000000EE00F0040EE80403E3EECFE4FFFBD7A8
:10141000E6525FD8E55200EE03F0040EE80403E361
:10142000E5CFEDFFFBD700EE05F0020EE80403E385
:10143000E5CFEDFFFBD7E5CFFAFFE5CFF4FFE5CF32
:10144000F3FFE5CFF5FFE5CFF7FFE5CFF6FFE5CFFB
:10145000EAFFE5CFE9FFE5CFDAFF11009384F092D0
:10146000F088F28E9BDE3BDF42DFD00EE66E50DF6F
:10147000E552E66A4DDFE552090EE66EE66EE66A73
:101480006BDFE552E552E552900EE66E180EE66E01
:10149000070EE66E010EE66EE66A75DF006E050E5B
:1014A000E15E00502CDF800EE66E0ADEE5520001A0
:1014B000600E816F000E826F39DEC00EE66E00DEB8
:1014C000E5520001660E816F000E826F2FDEFFD79E
:1014D000120002D8F0921200E66AE3DEE552000143
:1014E000836F010EE66EDDDEE5520001846F020EB1
:1014F000E66ED7DEE5520001876F030EE66ED1DEA1
:10150000E5520001856F040EE66ECBDEE552000168
:10151000886F050EE66EC5DEE5520001896F060E86
:10152000E66EBFDEE55200018A6F850EE66EC8DD0D
:10153000E55287C0E6FF8FDEE552E66EDCDDE55260
:1015400087C0E6FF9BDEE552E66ED5DDE5523A0E3A
:10155000E66ED1DDE55284C0E6FF7DDEE552E66E43
:10156000CADDE55284C0E6FF89DEE552E66EC3DDE2
:10157000E5523A0EE66EBFDDE55283C0E6FF6BDE54
:10158000E552E66EB8DDE55283C0E6FF77DEE55250
:10159000E66EB1DDE552C50EE66E92DDE55288C01D
:1015A000E6FF59DEE552E66EA6DDE55288C0E6FFAD
:1015B00065DEE552E66E9FDDE5522F0EE66E9BDDA1
:1015C000E55289C0E6FF47DEE552E66E94DDE5525E
:1015D00089C0E6FF53DEE552E66E8DDDE5522F0E43
:1015E000E66E89DDE5528AC0E6FF35DEE552E66E3D
:1015F00082DDE5528AC0E6FF41DEE552E66E7BDD24
:10160000E552200EE66E77DDE55285C0E6FF36DE58
:10161000E5520001866F300E865D06E100016C0E1A
:10162000816F000E826F82DD310E0001865D06E162
:1016300000016F0E816F000E826F78DD320E0001A7
:10164000865D06E10001720E816F000E826F6EDD15
:10165000330E0001865D06E10001750E816F000EFC
:10166000826F64DD340E0001865D06E10001780EB4
:10167000816F000E826F5ADD350E0001865D06E136
:1016800000017B0E816F000E826F50DD360E00016F
:10169000865D06E100017E0E816F000E826F46DDE1
:0216A000120036
:0E16A2002A0EF66E100EF76E000EF86E0001A6
:1016B0000900F550906F0900F550916F03E19067B4
:1016C00001D03DD00900F5508B6F0900F5508C6FAB
:1016D0000900F5508D6F09000900F550E96E090009
:1016E000F550EA6E090009000900F5508E6F0900F7
:1016F000F5508F6F09000900F6CF92F0F7CF93F005
:10170000F8CF94F08BC0F6FF8CC0F7FF8DC0F8FFC8
:1017100000018E5302E18F5307E00900F550EE6E91
:101720008E07F8E28F07F9D792C0F6FF93C0F7FF54
:1017300094C0F8FF00019007000E915BBFD7120024
:10174000000EF36E00EE00F0040E01D81200EA6005
:1017500002D0EE6AFCD7F350E9601200EE6AFCD7C3
:1017600013EE00F023EE00F0F86A059C51EC0BF04C
:0C177000BEEC0BF02EEC0AF0FBD71200D0
:02177C00120059
:02177E005449CC
:101780004D453A00444154453A005375004D6F00B1
:0F1790005475005765005468004672005361009D
:00000001FF
