:020000040000FA
:0600000052EF01F01200B6
:0A0006000100C202000060000000CB
:040010000A000000E2
:0C001400D9CFE6FFE1CFD9FF0A0EE126AC
:10002000D950080FE96EDACFEAFF600EEE6E000ECF
:10003000ED6EDE6ADD6ADECF00F0DDCF01F0D89034
:10004000015004E6050E005C000E01582BE2080E7C
:10005000DBCFE9FF090EDBCFEAFF020EEECFDBFFBD
:10006000030EEDCFDBFFDECFE9FFDDCFEAFFD89057
:10007000E936EA36740EE926000EEA22020EDBCFDC
:10008000EEFF030EDBCFEDFFD950080FE96EDACF9C
:10009000EAFF020EEE26000EEF22DF2A010E01E338
:1000A000DB2AC9D7020EDB6A030EDB6A020EDBCF46
:1000B00000F0030EDBCF01F0D890015004E6040EEF
:1000C000005C000E015801E384D0D950080FE96E9E
:1000D000DACFEAFF740EEE6E000EED6EDE6ADD6AB8
:1000E000DECF00F0DDCF01F0D890015004E6040E21
:1000F000005C000E015867E2080EDBCFE9FF090E35
:10010000DBCFEAFF040EEECFDBFF050EEDCFDBFF0A
:10011000D950080FE96EDACFEAFF020EEE26000E84
:10012000EF22080EDBCFE9FF090EDBCFEAFF060E58
:10013000EECFDBFF070EEDCFDBFF040EDBCF00F0D1
:10014000050EDBCF01F0060EDBCF02F0070EDBCF92
:1001500003F003500118E8AE02D0013404D000507F
:10016000025C015003582AE2DECFE9FFDDCFEAFF4F
:10017000D890E936EA36740EE926000EEA22060E19
:10018000DBCFEEFF070EDBCFEDFFDF2A010E01E331
:10019000DB2ADECFE9FFDDCFEAFFD890E936EA3689
:1001A000740EE926000EEA22040EDBCFEEFF050EE8
:1001B000DBCFEDFFDF06010E01E2DB06DF2A010ED9
:1001C00001E3DB2A8DD7020EDB2A030E01E3DB2AD3
:1001D0006DD70A0EE15C02E2E16AE552E16EE5529A
:0601E000E7CFD9FF120079
:0A01E600060EF66E000EF76E000E16
:1001F000F86E00010900F5506F6F0900F550706F3F
:1002000003E16F6701D03DD00900F5506A6F090026
:10021000F5506B6F0900F5506C6F09000900F5503F
:10022000E96E0900F550EA6E090009000900F55071
:100230006D6F0900F5506E6F09000900F6CF71F07F
:10024000F7CF72F0F8CF73F06AC0F6FF6BC0F7FF1C
:100250006CC0F8FF00016D5302E16E5307E0090026
:10026000F550EE6E6D07F8E26E07F9D771C0F6FF34
:1002700072C0F7FF73C0F8FF00016F07000E705BDC
:04028000BFD71200D2
:0C028400000EF36E00EE00F0040E01D836
:100290001200EA6002D0EE6AFCD7F350E960120067
:0402A000EE6AFCD72F
:0C02A40013EE00F023EE00F0F86A059C59
:1002B000F3EC00F060EC01F00AEC00F0FBD7120068
:0202C00012002A
:0A02C200070005000400030002001D
:00000001FF
