:020000040000FA
:06000000A3EF00F0120066
:0A000600010064010000600000002A
:0400100014000000D8
:0C001400060EF66E000EF76E000EF86E81
:1000200000010900F550796F0900F5507A6F03E17E
:10003000796701D03DD00900F550746F0900F55083
:10004000756F0900F550766F09000900F550E96EEB
:100050000900F550EA6E090009000900F550776FB4
:100060000900F550786F09000900F6CF7BF0F7CF53
:100070007CF0F8CF7DF074C0F6FF75C0F7FF76C056
:10008000F8FF0001775302E1785307E00900F550CB
:10009000EE6E7707F8E27807F9D77BC0F6FF7CC0F1
:1000A000F7FF7DC0F8FF00017907000E7A5BBFD72C
:0200B00012003C
:0E00B200D9CFE6FFE1CFD9FF040EE126600EA4
:1000C000DE6E000EDD6E020EDB6A030EDB6A020ED0
:1000D000DBCF02F0030EDBCF03F0D890035004E631
:1000E0000A0E025C000E035814E2DECFE9FFDDCFFA
:1000F000EAFFEE6AED6AD9CFE9FFDACFEAFF020E36
:10010000EE26000EEF22020EDB2A030E01E3DB2AAD
:10011000DED7040EE15C02E2E16AE552E16EE552EF
:06012000E7CFD9FF120039
:0A012600000EF36E00EE00F0040E70
:1001300001D81200EA6002D0EE6AFCD7F350E96001
:060140001200EE6AFCD77C
:0A01460013EE00F023EE00F0F86A5B
:10015000019C0AEC00F0B1EC00F059EC00F0FBD788
:0201600012008B
:02016200120089
:0C01640000000100020003000400050080
:08017000060007000800090069
:00000001FF
