:020000040000FA
:06000000BAEF00F012004F
:0A00060001009201000060000000FC
:0400100014000000D8
:0C001400D9CFE6FFE1CFD9FF060EE126B0
:10002000600EDE6E000EDD6E020EDB6A030EDB6A12
:10003000020EDBCF02F0030EDBCF03F0D8900350AB
:1000400004E60A0E025C000E03582BE2DECFE9FF45
:10005000DDCFEAFF040EEECFDBFF050EEDCFDBFFB9
:10006000020EDBCFE9FF030EDBCFEAFFD890E936C3
:10007000EA36740EE926000EEA22040EDBCFEEFF0C
:10008000050EDBCFEDFFD9CFE9FFDACFEAFF020E95
:10009000EE26000EEF22020EDB2A030E01E3DB2A1E
:1000A000C7D7060EE15C02E2E16AE552E16EE55275
:0600B000E7CFD9FF1200AA
:0A00B600060EF66E000EF76E000E47
:1000C000F86E00010900F5508D6F0900F5508E6F34
:1000D00003E18D6701D03DD00900F550886F09001C
:1000E000F550896F0900F5508A6F09000900F55035
:1000F000E96E0900F550EA6E090009000900F550A3
:100100008B6F0900F5508C6F09000900F6CF8FF056
:10011000F7CF90F0F8CF91F088C0F6FF89C0F7FFD5
:100120008AC0F8FF00018B5302E18C5307E00900FD
:10013000F550EE6E8B07F8E28C07F9D78FC0F6FF0B
:1001400090C0F7FF91C0F8FF00018D07000E8E5B95
:04015000BFD7120003
:0C015400000EF36E00EE00F0040E01D867
:100160001200EA6002D0EE6AFCD7F350E960120098
:04017000EE6AFCD760
:0C01740013EE00F023EE00F0F86A019C8E
:100180005BEC00F0C8EC00F00AEC00F0FBD71200CA
:0201900012005B
:0E01920000000100020003000400050006004A
:0601A00007000800090041
:00000001FF
