:020000040000FA
:06000000D1EF08F0120030
:06100000D1EF08F0120020
:021008001200D4
:021018001200C4
:02102A000000C4
:04102C00F19E81941C
:10103000F00E936E81BA0AD08184010EE66E22D83A
:10104000E5528194040EE66E1DD8E55281BC0AD0AB
:101050008184020EE66E16D8E5528194030EE66E88
:1010600011D8E55281BE0BD08184030EE66E0AD8FA
:10107000E5528194020EE66E05D8E55201D08184D6
:10108000D9D71200D9CFE6FFE1CFD9FF020EE12672
:10109000DE6ADD6ADECF02F0DDCF03F0FE0EDB504C
:1010A000000103AE02D0D89003D0025C000E0358BA
:1010B0000FE2080ED56ED768380ED66ED58EF2A424
:1010C000FED7D59EF294DF2A010E01E3DB2AE2D798
:1010D000020EE15C02E2E16AE552E16EE552E7CF21
:0410E000D9FF120022
:0C10E4002A0EF66E100EF76E000EF86E6D
:1010F00000010900F550656F0900F550666F03E1C6
:10110000656701D03DD00900F550606F0900F550CA
:10111000616F0900F550626F09000900F550E96E32
:101120000900F550EA6E090009000900F550636FE7
:101130000900F550646F09000900F6CF67F0F7CF9A
:1011400068F0F8CF69F060C0F6FF61C0F7FF62C0D9
:10115000F8FF0001635302E1645307E00900F55012
:10116000EE6E6307F8E26407F9D767C0F6FF68C060
:10117000F7FF69C0F8FF00016507000E665BBFD787
:0211800012005B
:0E118200000EF36E00EE00F0040E01D8120015
:10119000EA6002D0EE6AFCD7F350E9601200EE6A12
:0211A000FCD77A
:0E11A20013EE00F023EE00F0F86A019C72ECF0
:0E11B00008F0DFEC08F016EC08F0FBD7120098
:0211BE0012001D
:00000001FF
