:020000040000FA
:060000002BEF0BF01200D3
:061000002BEF0BF01200C3
:021008001200D4
:021018001200C4
:02102A000000C4
:04102C00D9CFE6FF33
:10103000E1CFD9FF040EE126DE6ADD6ADECF10F0D3
:10104000DDCF11F0FD0EDBCF12F0FE0EDBCF13F083
:1010500011501318E8AE02D0133404D01250105CB3
:10106000135011581DE2020EDB6A030EDB6A020EFA
:10107000DBCF10F0030EDBCF11F0D890115004E657
:10108000C60E105C020E115806E2020EDB2A030E99
:1010900001E3DB2AECD7DF2A010E01E3DB2ACED7FE
:1010A000040EE15C02E2E16AE552E16EE552E7CF4F
:1010B000D9FF1200D9CFE6FFE1CFD9FF0F0EE66EC0
:1010C000E66AB4DFE552E552FE0EDB50836E849093
:1010D000849284840F0EE66EE66AA8DFE552E5523C
:1010E0008494E552E7CFD9FF1200D9CFE6FFE1CFD4
:1010F000D9FF0F0EE66EE66A99DFE552E552FE0E65
:10110000DB50836E8480849284840F0EE66EE66AE0
:101110008DDFE552E5528494E552E7CFD9FF120006
:10112000D9CFE6FFE1CFD9FF020EE126DE6ADD6A04
:10113000DE50000160250F01E96EDD5000016121E4
:101140000F01EA6EEF5019E0DE50000160250F013B
:10115000E96EDD50000161210F01EA6EEF50E66E8D
:10116000C4DFE5520F0EE66EE66A60DFE552E55237
:10117000DF2A010E01E3DB2ADBD7020EE15C03E28A
:1011800000D0E16AE552E16EE552E7CFD9FF1200E7
:101190000E0EC16E956A966A380EE66E8BDFE552CA
:1011A0000E0EE66E87DFE552010EE66E83DFE55236
:1011B000060EE66E7FDFE552800EE66E7BDFE552BF
:1011C0001200D9CFE6FFE1CFD9FF0A0EE126D9CF31
:1011D000E9FFDACFEAFF760EEE6E6F0EEE6E6C0E62
:1011E000EE6E740EEE6E610EEE6E670EEE6E650EB6
:1011F000EE6E200EEE6E3D0EEE6EEE6A9280C8DF51
:10120000D9CF60F0DACF61F08BDF010EC26E0E0E27
:10121000C16ECE0EC06E0BD8F8D70A0EE15C02E2AA
:10122000E16AE552E16EE552E7CFD9FF1200890E7F
:10123000E66E40DFE552C282C2B2FED7C3CF62F093
:101240000001636B646B656BC4CF66F0676B686BA2
:10125000696B080E1F0B08E00001D89066376737EE
:1012600068376937E806F9E1660EE96E000EEA6E46
:1012700000016251EE106A6F6351EE106B6F6451A2
:10128000EE106C6F6551EE106D6FB80E096E0B0E9F
:101290000A6E0B6A0C6A6AC004F06BC005F06CC081
:1012A00006F06DC007F0BFEC0AF000C06AF001C0A4
:1012B0006BF002C06CF003C06DF00968030E0A6E9B
:1012C0000B6A0C6A6AC004F06BC005F06CC006F0D3
:1012D0006DC007F0F7EC0AF004C06AF005C06BF0CF
:1012E00006C06CF007C06DF06E0EE96E000EEA6E7F
:1012F000EE5000016A5DEE506B59EE506C59EE50A5
:101300006D5901E2ECD06AC06EF06BC06FF06CC03A
:1013100070F06DC071F06EC010F06FC011F070C051
:1013200012F071C013F0E80E096E030E0A6E0B6A1C
:101330000C6A10C004F011C005F012C006F013C012
:1013400007F0F7EC0AF004C010F005C011F006C079
:1013500012F007C013F0300E1026000E11221222D8
:10136000132210C072F06EC010F06FC011F070C088
:1013700012F071C013F0E80E096E030E0A6E0B6ACC
:101380000C6A10C004F011C005F012C006F013C0C2
:1013900007F0F7EC0AF000C010F001C011F002C035
:1013A00012F003C013F0640E096E0A6A0B6A0C6A2D
:1013B00010C004F011C005F012C006F013C007F011
:1013C000F7EC0AF004C010F005C011F006C012F0EE
:1013D00007C013F0300E1026000E11221222132225
:1013E00010C073F06EC010F06FC011F070C012F03A
:1013F00071C013F0640E096E0A6A0B6A0C6A10C0A1
:1014000004F011C005F012C006F013C007F0F7ECAD
:101410000AF000C010F001C011F002C012F003C0C9
:1014200013F00A0E096E0A6A0B6A0C6A10C004F007
:1014300011C005F012C006F013C007F0F7EC0AF077
:1014400004C010F005C011F006C012F007C013F080
:10145000300E1026000E11221222132210C074F03A
:101460006EC010F06FC011F070C012F071C013F0B8
:101470000A0E096E0A6A0B6A0C6A10C004F011C0E9
:1014800005F012C006F013C007F0F7EC0AF000C038
:1014900010F001C011F002C012F003C013F0300EC2
:1014A0001026000E11221222132210C075F072C0F5
:1014B000E6FF1BDEE5522E0EE66E17DEE55273C028
:1014C000E6FF13DEE55274C0E6FF0FDEE55275C09D
:1014D000E6FF0BDEE552760EE66E07DEE552120001
:1014E0002A0EF66E100EF76E000EF86E000109005F
:1014F000F5507B6F0900F5507C6F03E17B6701D0ED
:101500003DD00900F550766F0900F550776F09005E
:10151000F550786F09000900F550E96E0900F550A3
:10152000EA6E090009000900F550796F0900F550CD
:101530007A6F09000900F6CF7DF0F7CF7EF0F8CF83
:101540007FF076C0F6FF77C0F7FF78C0F8FF0001A4
:10155000795302E17A5307E00900F550EE6E7907FE
:10156000F8E27A07F9D77DC0F6FF7EC0F7FF7FC0AB
:0E157000F8FF00017B07000E7C5BBFD7120066
:02157E00045017
:101580000902F3CF00F0F4CF01F00A02F350012674
:10159000000EF420026E04500B02F3500226000EDF
:1015A000F420036E04500C02F35003260550090288
:1015B000F3500126F4500222000E032205500A02C5
:1015C000F3500226F450032205500B02F350032679
:1015D00006500902F3500226F450032206500A0274
:0E15E000F350032607500902F35003261200B1
:0215EE00036A8E
:1015F000026A016A006A200EE76ED890043605364A
:101600000636073600360136023603360950005CCE
:101610000A5001580B5002580C50035809E3095066
:10162000005E0A50015A0B50025A0C50035A042A09
:06163000E72EE4D71200D2
:0A163600000EF36E00EE00F0040E4B
:1016400001D81200EA6002D0EE6AFCD7F350E960DC
:061650001200EE6AFCD757
:0A16560013EE00F023EE00F0F86A36
:101660000F9C70EC0AF039EC0BF0E1EC08F0FBD7C2
:02167000120066
:02167200120064
:00000001FF
