:020000040000FA
:0600000012EF09F01200EE
:0610000012EF09F01200DE
:021008001200D4
:021018001200C4
:02102A000000C4
:04102C00D9CFE6FF33
:10103000E1CFD9FF040EE126DE6ADD6ADECF02F0E1
:10104000DDCF03F0D890035004E60A0E025C000ED8
:1010500003581DE2020EDB6A030EDB6A020EDBCFD1
:1010600002F0030EDBCF03F0D890035004E6640EC9
:10107000025C000E035806E2020EDB2A030E01E3B7
:10108000DB2AECD7DF2A010E01E3DB2AD7D7040ED7
:10109000E15C02E2E16AE552E16EE552E7CFD9FF99
:1010A0001200D9CFE6FFE1CFD9FFC0DFFE0EDB5043
:1010B000AD6E9EA8FED7E552E7CFD9FF12006AC0F9
:1010C000E9FF6BC0EAFFEF500DE06AC0E9FF6BC0BB
:1010D000EAFFEF50E66EE5DFE55200016A2B000EF5
:1010E0006B23EDD700D012004D0EAF6E949CAC8AEE
:1010F000AB8EAB881200D9CFE6FFE1CFD9FF0F0E40
:10110000E126D9CFE9FFDACFEAFF200EEE6E560EC8
:10111000EE6E490EEE6E560EEE6E450EEE6E4B0EF8
:10112000EE6E200EEE6E540EEE6E490EEE6E570E03
:10113000EE6E410EEE6E520EEE6E490EEE6E200E0B
:10114000EE6EEE6AD1DFD9CF6AF0DACF6BF0B7DF9F
:10115000FFD70F0EE15C02E2E16AE552E16EE55273
:06116000E7CFD9FF1200E9
:0A1166002A0EF66E100EF76E000E52
:10117000F86E00010900F550656F0900F550666FC3
:1011800003E1656701D03DD00900F550606F0900AB
:10119000F550616F0900F550626F09000900F550C4
:1011A000E96E0900F550EA6E090009000900F550E2
:1011B000636F0900F550646F09000900F6CF67F00E
:1011C000F7CF68F0F8CF69F060C0F6FF61C0F7FFB5
:1011D00062C0F8FF0001635302E1645307E00900B5
:1011E000F550EE6E6307F8E26407F9D767C0F6FFC3
:1011F00068C0F7FF69C0F8FF00016507000E665B75
:04120000BFD7120042
:0C120400000EF36E00EE00F0040E01D8A6
:101210001200EA6002D0EE6AFCD7F350E9601200D7
:04122000EE6AFCD79F
:0C12240013EE00F023EE00F0F86A019CCD
:10123000B3EC08F020EC09F07BEC08F0FBD71200CF
:0212400012009A
:00000001FF
